:020000040000FA
:10000000E8090020D5000000FB000000FD00000012
:1000100000000000000000000000000000000000E0
:100020000000000000000000000000000D010000C2
:1000300000000000000000000F010000C5030000E8
:100040001301000013010000130100001301000060
:100050001301000013010000130100001301000050
:1000600013010000A10400001301000013010000AF
:1000700045060000130100001301000013010000F9
:100080001301000013010000130100001301000020
:100090001301000013010000130100001301000010
:1000A0001301000013010000130100001301000000
:1000B00013010000130100001301000013010000F0
:1000C0000348854600F076F8004800470107000025
:1000D000E8090020134814490160144901601449DB
:1000E0000160144A14491160144A15491160002135
:1000F00001601448804714480047FEE77046EFF35C
:100100000881EFF30982114B98470047FEE7FEE7AD
:10011000FEE7FEE7ABBE0E4B08B5984708BD70463C
:10012000F0470000000100405900000016000000E8
:100130008800000024000040A55A00008002004012
:10014000010000006D040000C10000006903000010
:10015000A9030000F0B51FB40646002082B0054692
:100160004024019100901BE0019922460F46304641
:1001700000F067F8049A059B801A994110D3104645
:100180001946224600F04DF8361A8F410197224653
:1001900001200021009F00F044F838184D410090E4
:1001A0002046641E0028DFDC019B00982946324669
:1001B00007B0F0BD1CB509480090094801900546FC
:1001C0000126009C05E0E36807CC33430C3C9847CC
:1001D0001034AC42F7D3FFF777FF0000A015000002
:1001E000C015000070B50446002903D0002020226D
:1001F000012310E0002801D00020C043C046C046C3
:100200000DE02546D5408D4205D30D469540641B33
:100210001D46954040191546521E002DF1DC214621
:1002200070BD10B5202A04DB0146203A9140002021
:1002300010BD914020239C1A0346E340194390408F
:1002400010BD10B5202A04DB0846203AD04000211A
:1002500010BD0B46D340D0402024A21A9140084341
:10026000194610BD03460B439B0703D009E008C99C
:10027000121F08C0042AFAD203E00B780370401C56
:10028000491C521EF9D2704780B500F0A1F804480D
:1002900000680721014074480068C84080BDC0461E
:1002A0003402004070480068400803490A68D206DA
:1002B00001D4401EFAD1704750020040F0B585B01D
:1002C000694FFC690026FE61386A002828D0386A28
:1002D0008442354608D2386A011B7D20C00048435D
:1002E000396AFFF77FFF05467D620A212846FFF73E
:1002F00079FF014604943C6A4F279148C25D8368A8
:10030000102000940192029003930920C0434843B7
:1003100042190448049B00F055FD8948C655866083
:1003200005B0F0BD9C13000002480168491C016043
:100330007047C0468400002070B50021094A0B4672
:10034000102B0ED00446DC40E40707D001248C407B
:1003500003258D401668AE4326431660891C5B1C3E
:10036000EEE770BD4040004010B5430700D5114690
:100370008A691388064CA34205D10A4B00241C60ED
:10038000921C8A6110BD03A000F076FFFEE7C04614
:10039000ABBE00002020486172644661756C742118
:1003A0000A0000002C000020002070473A48592124
:1003B0000160162101608821016001680029F6D0E2
:1003C0007047C0465E480168491C01607047C046DE
:1003D000B0B5184C206807250540216B05200004A6
:1003E000014201D0002016E0080301D5134800E0C7
:1003F00011488A030FD4124A0A40921C80085043C5
:100400000A04920F0F4B9A5C8904C90E891C514350
:10041000FFF7E8FE8000022D02D0A8000AA10858CC
:1004200021690F220A40511CFFF7DCFE0E490860CB
:10043000B0BDC046100200400048E801001BB700F4
:10044000FF010000B81200000048E8010080000031
:1004500000D8B80500960000006CDC020000000027
:1004600000000000006CDC02000000200A48592156
:100470000160162101608821016001680029F6D021
:1004800007210905054A13688B43136013680B4362
:10049000136000210160704700010040000200402D
:1004A000F8B526490868C00700D1F8BD01200090C2
:1004B000086023494A68521C4A600022604B214C64
:1004C000102AF2D01D79002D35D09D68002D32D034
:1004D0005D88A54202D05D886D1C5D805D881E88A8
:1004E000B54228D300265E805D79002D07D04E25C9
:1004F0004F5D102F09D38D686D1C8D601BE09D79B9
:10050000002D18D10098987115E04D27C85D800026
:100510000818C260C85D401CC855C85D102800D3CB
:10052000CE55485D401C4855485D4F268F5DB8420A
:1005300001D9485D88551033521CC1E72800054099
:1005400030000020FFFF000080B504480268511C05
:100550000160034803A100F035FC80BD8800002045
:10056000BC1200005461736B315F43616C6C62615B
:10057000636B000080B504480268511C016003A051
:1005800007A100F01FFC80BD8C00002025733A25D8
:10059000346420283220736563290D0A00000000AE
:1005A0005461736B325F43616C6C6261636B00001A
:1005B0007047704780B50748016801224A400260D1
:1005C00005480268511C0160044805A100F0FAFBCF
:1005D00080BDC0467848004090000020BC1200005A
:1005E0005461736B355F43616C6C6261636B0000D7
:1005F000B0B502460024124B2046102805D09D6855
:10060000002D04D01033401CF7E7E043B0BD1A8042
:1006100000225A801A7101245C719A71DA71996012
:10062000DA60B0BD0F280AD80001054908188168B2
:10063000002904D00021418081710121017170479E
:10064000E8000020F8B5194F786811210902084226
:1006500021D0174C17A5386840041CD438461838E8
:100660000068C6B2802E03D316A000F005FEF2E7A4
:100670002846314600F0A6FB582E05D05A2E03D04E
:100680007A2E01D0782EE6D1FFF790FE2068012166
:1006900001432160DFE738687121084205D07020EE
:1006A0003860082038600C483860F8BD18000740F2
:1006B000080000407072657373203A2025630D0AAC
:1006C00000000000696E76616C696420636F6D6D77
:1006D000616E640D00000000010000010121CA05E7
:1006E00006498B691342FCD1C3B20A2B04D10D23F6
:1006F0000B608B691342FCD1086070470000074013
:1007000090B0FFF753FEDE4C206804263043206093
:10071000FFF7C8FD256D2068029630432060FFF783
:10072000C1FD2069072630432061206A0F2108910E
:1007300088432062206930432061FFF749FEE806C4
:1007400003D42068042188432060A0680821049114
:100750000843A0603003616901436161C948411CDD
:100760000991A0680843A060089D2802216A81437E
:100770002162039630066169814303273806081811
:100780006061FF200004C04EB16B81433320400400
:100790000818B063FFF71CFEBC480024046028065C
:1007A000B16B8143B1632807B16B8143B16301250C
:1007B000A803FFF7C1FDE8030790FFF7BDFDB06890
:1007C00009990843B0602804B1688143B1600AA860
:1007D000AFA11822FFF746FDA9494869096AB24E40
:1007E0000194F4620597B7607268B04B1340736070
:1007F00009952A0206924001460F0805070FAC4AE8
:10080000042E0BD0012E9E4C0DD1216C052000042E
:10081000014200D15EE2029D019802E01025FFF73F
:1008200033FD0AA94851B0000AA90858791CFFF7FE
:10083000D9FC0546E127380228187E023146FFF729
:10084000D1FC801E8F49884207D9380328183146C9
:10085000FFF7C8FC0009801E02E00599090708435C
:10086000914A10621068112101431160099F3803F9
:1008700090490860904CA04790480168064690480F
:10088000904DA847A04731688F48A8477C4E3068F4
:1008900038404142864801408CA0A8473068810317
:1008A000079801408FA0A847FFF7EEFC014693A0F0
:1008B000A847A047706B814909684006400FC140B6
:1008C00095A0A84770694004400F022803D1FFF7A4
:1008D000DBFC054602E0800096490D58069E09980B
:1008E000C006954C20607D200290C10028460791EB
:1008F000FFF778FC91498D4200D802206060099F83
:10090000780721680143216078026A4908605E4ADD
:10091000101F21680143216015683046FF301168BF
:1009200001431160FC48294600F04CFA2C463C403B
:1009300002D0FAA000F0A0FCA80702D5FC4800F005
:100940009BFC680702D5FB4800F096FC280702D5FF
:10095000F94800F091FCE80602D5F84800F08CFC5C
:10096000A80602D5F64800F087FC680602D5F548CF
:1009700000F082FC280602D5F34800F07DFC3542E9
:1009800002D0F24800F078FC3046BF3005422BD050
:10099000002C01D10220099029460598014001D17F
:1009A000042009902B460398034001D00998049035
:1009B00008982840089001D1102004901F222A4056
:1009C00001D1202004903F262E4001D180200490A8
:1009D000BF20054001D004980690CB48069F0760D1
:1009E000002C03D0DC4802E0D94813E0D9480029A4
:1009F00000D1DA48002B00D1D9480899002900D14C
:100A0000D848002A00D1D848002E00D1D748002D60
:100A100000D1D74800F030FCD64C00252560BD48F9
:100A200000680799FFF7DEFB401E010E03D0E44883
:100A300000F022FCFEE7D049D04A5060D04803685D
:100A40000B4005998907591801609560039810605B
:100A50004C26A5554D2025544E23E55450202554B1
:100A6000C848102100296BD00580458005710122FE
:100A700042718571C5718560C560491E1030F1E70E
:100A800000020040FFFF00000400004000010040A1
:100A90000048E8010000000000800000006CDC025B
:100AA0000000000000960000040007400FFFF0FF68
:100AB0000048E80100E100E0D10300000000002050
:100AC00083130000C50D00006B130000434C4B5F07
:100AD00047657448585446726571203A2025386439
:100AE0000D0A0000434C4B5F4765744C58544672E6
:100AF0006571203A202538640D0A0000434C4B5F95
:100B000047657450434C4B3046726571203A20253E
:100B100038640D0A00000000434C4B5F4765745079
:100B2000434C4B3146726571203A202538640D0ADA
:100B3000000000009812000020000540D1070000CE
:100B4000089509939049079F3846FFF751FD714D6D
:100B50002885288D288DFFF765FD298D8B4800F0AD
:100B600031F98B493846FFF743FD6860002806D409
:100B70000746FFF757FD8748394600F023F90298EA
:100B800000018549FFF734FD054662488560002D68
:100B900006D42846FFF746FD8048294600F012F9A2
:100BA00064207F49FFF724FD01465A48C1600029AF
:100BB000099F089D07D408460691FFF733FD794841
:100BC000069900F0FFF8FA207749FFF711FD01467A
:100BD00050480161002907D408460691FFF722FD1D
:100BE0007248069900F0EEF871490798FFF700FD8A
:100BF000014648484161002907D408460791FFF79C
:100C000011FD6C48079900F0DDF85E4B102D05D002
:100C10009968002907D010336D1CF7E70020C04306
:100C20003C49886114E00121198000215980197123
:100C300059719971D971604A9A60364A28461546A9
:100C40009061D960FFF7EEFCA9695C4800F0BAF842
:100C5000E05D002819D0A05D80002018C068A15D6B
:100C6000491CA155A15D102901D30021A155E15DC9
:100C7000491EE1550F28EBD8000142490818816848
:100C8000C0680029E4D08847E2E73E4F0C371025C2
:100C9000002D19D0F81F0078002802D06D1E1037E3
:100CA000F6E73846083800780028F7D0381F016882
:100CB0000029F3D0B91F0A78002AEFD000220A7069
:100CC000016838688847E9E71249C869401CC8616B
:100CD000099FBDE708031046029D00D50B488A0313
:100CE00000D59EE5069AFF320A40921C80085043C8
:100CF0000A04920F064B9A5C8904C90E891C514361
:100D0000FFF770FA80008CE504000040001BB7007C
:100D1000B812000000000020CD1200003029504F12
:100D20005220526573657420466C61670D000000A7
:100D30009C14000078140000661400005414000095
:100D4000F91300000F1400008A140000B51400000D
:100D50002F140000CE1400001C1400001A1500000F
:100D600001150000E8140000331500006F150000A5
:100D70004F15000030000020FFFFFF0010E000E0F2
:100D800020ED00E0E8000020BD0200004F1300004D
:100D900049050000E512000075050000F51200008D
:100DA000B105000005130000B30500001513000095
:100DB000B5050000251300002903000035130000CD
:100DC000881500000FB410B503A9044B044A02981B
:100DD00000F018F810BC08BC04B01847DD0600008D
:100DE0009400002002E008C8121F08C1002AFAD1AE
:100DF00070477047002001E001C1121F002AFBD19B
:100E000070470000FFB591B00F460546002606E08A
:100E100025280AD0149A139990476D1C761C2878BF
:100E20000028F5D1304615B0F0BD00240094012112
:100E3000F34A029400E004436D1C2B780846203BE3
:100E400098401042F7D128782A280ED0022128781D
:100E50000246303A092A15D8009A0A235A43303AF2
:100E600080180C436D1C0090F1E701CF0090002822
:100E700005DA01204003044300984042009002201C
:100E800004436D1C28782E2815D10420044368786B
:100E90006D1C2A280AD101CF6D1C02900BE002992B
:100EA0000A225143303940186D1C029028780146BF
:100EB00030390929F3D928786C2810D006DC4C2861
:100EC0001AD068280ED06A2817D104E0742813D0ED
:100ED0007A2812D110E00120400504430CE00121E2
:100EE000090501E0032109050C436978814203D11A
:100EF0000120000524186D1C6D1C287803906E28B5
:100F00001ED00CDC632831D004DC00288AD058289D
:100F100011D1B2E064287BD069280CD178E0732825
:100F20002DD004DC6F2870D0702804D1A7E075287C
:100F30006CD078286BD0149A13999047761C62E095
:100F40006002400F022807D003280AD0042838681E
:100F50000AD006603F1D56E03868F1170660416010
:100F6000F8E738680680F5E70670F3E738786946F1
:100F700008740020487404A80390012003E0386836
:100F800003900020C0433F1D61070FD5002101E001
:100F90000199491C029A0191914213DA8142F7DBCF
:100FA000019A0399895C0029F2D10BE0002101E04C
:100FB0000199491C01918142FADB019A0399895CEC
:100FC0000029F5D101990098139A401A0090214602
:100FD000149B00F03BF901998019461807E003982B
:100FE00003990078491C0391149A1399904701982A
:100FF000401E0190401CF2D12146149B139A009888
:1010000000F014F986196D1C09E741E033E034E083
:101010000A200021049005916002410F022905D0A9
:1010200001CFC2179446032905D007E0FF1DFF0832
:10103000FF0003CF06E000B2C2179446042902D194
:1010400040B2C1178C4600226146944506DA0A4632
:101050000021404291418C462D2102E0210504D51A
:101060002B216A461176012103E0E10701D02021FE
:10107000F7E7019154E00A200BE0102009E010206E
:10108000049000210420044308200591029003E00D
:1010900008200021059104906002410F022905D02B
:1010A00001CF00229446032906D006E0FF1DFF0869
:1010B000FF0003CF8C4603E080B2042900D1C0B208
:1010C0000021019121072BD50399702906D0049A9C
:1010D0001021059B4A401A4305D00EE040216A4684
:1010E0001176012108E06146014306D030216A46AD
:1010F00011760399517602210191049A0821059BEA
:101100004A401A430CD16146014301D1610707D51A
:1011100030216A461176012101910299491E0291FE
:101120000399582904D037A103910FA90F910DE01D
:1011300039A1F9E76146059B049AFFF70BF8039B79
:101140008C469B5C0F9A521E0F92137061460143AE
:10115000F0D10F9807A9081A20300390600704D532
:10116000012000048443029801E0012002900399C9
:10117000884201DD401A00E00020411802900198E9
:1011800009180098401A0090E00306D42146149BE9
:10119000139A009800F05AF886190020049008E08D
:1011A00006A9085C149A139990470498401C761C71
:1011B000049001998842F3DBE0030CD52146149B8F
:1011C000139A009800F042F8861904E0149A30202F
:1011D00013999047761C0299481E02900029F5DC6D
:1011E00008E00F980F990078491C0F91149A1399F1
:1011F0009047761C0399481E03900029F1DCFBE61A
:1012000009280100303132333435363738396162DC
:1012100063646566000000003031323334353637A0
:10122000383941424344454600000000F8B50446C1
:1012300000251E461746880404D405E039462020C0
:10124000B0476D1C641EF9D52846F8BDFFB50446AD
:10125000002581B01E46C80301D5302700E02027B5
:10126000880404D505E038460399B0476D1C641E18
:10127000F9D5284605B0F0BD10B5044601E0FFF7EA
:101280002DFA2078641C03490028F8D10A20FFF7C2
:1012900025FA10BD940000200048E80100800000FD
:1012A00000000000000000000000000000960000A8
:1012B00000000000006CDC020102020425733A25E4
:1012C000346420283120736563290D0A0052657348
:1012D000657420536F75726365203C307825303813
:1012E000583E0D0A007461736B31206964203D2003
:1012F00025640D0A007461736B32206964203D20FF
:1013000025640D0A007461736B33206964203D20ED
:1013100025640D0A007461736B34206964203D20DC
:1013200025640D0A007461736B35206964203D20CB
:1013300025640D0A00666C61672062617365207424
:10134000696D6572206964203D2025640D0A006383
:101350007075206D6F6E69746F722074696D65723F
:10136000206964203D2025640D0A00434C4B5F47F3
:10137000657448434C4B46726571203A20253864A9
:101380000D0A000D0A434C4B5F47657443505546A8
:10139000726571203A202538640D0A0043505520AB
:1013A0006C6F6164203D2025336C752E2530316CC7
:1013B000752525202869646C655F6E6F773D256C07
:1013C000752C2069646C655F6D61783D256C7529AD
:1013D0002C5175657565206465707468206D617841
:1013E0003D2575202F2025752C206F766572666C43
:1013F0006F773D256C750D0A003529537973746537
:101400006D20526573657420466C6167200D00364F
:101410002952657365727665642E0D00706F77656D
:1014200072206F6E2066726F6D20504F520D0070EB
:101430006F776572206F6E2066726F6D20756E68B3
:10144000616E646C6520726573657420736F75726C
:1014500063650D003429424F442052657365742042
:10146000466C61670D0033294C56522052657365F6
:101470007420466C61670D00322957445420526530
:1014800073657420466C61670D0037294350552001
:10149000526573657420466C61670D0031294E52A8
:1014A000455345542050696E20526573657420463B
:1014B0006C61670D003829435055204C6F636B7584
:1014C0007020526573657420466C61670D00706F03
:1014D000776572206F6E2066726F6D206E52455375
:1014E00045542070696E0D00706F776572206F6EC5
:1014F0002066726F6D20424F442052657365740DF3
:1015000000706F776572206F6E2066726F6D204C71
:1015100056522052657365740D00706F77657220A6
:101520006F6E2066726F6D2057445420526573654C
:10153000740D00706F776572206F6E2066726F6D2C
:101540002053797374656D2052657365740D007056
:101550006F776572206F6E2066726F6D20435055F5
:10156000204C6F636B75702052657365740D00704D
:101570006F776572206F6E2066726F6D20435055D5
:101580002072657365740D005365742073797374EC
:10159000656D207469636B206572726F7221210022
:1015A000C01500000000002030000000E40D000025
:1015B000F015000030000020B8090000F40D000014
:1015C00000D8B805FFFFFFFFFFFFFFFFFFFFFFFF92
:1015D000FFFFFFFFFFFFFFFFFFFFFFFF0000000017
:1015E00018D0020000000000FFFF00000100000012
:04000005000000D522
:00000001FF
